{
  "abi": [
    {
      "inputs": [
        {
          "internalType": "address",
          "name": "lendingProtocol",
          "type": "address"
        },
        {
          "internalType": "address",
          "name": "uniswapRouter",
          "type": "address"
        },
        {
          "internalType": "address",
          "name": "uniswapFactory",
          "type": "address"
        }
      ],
      "stateMutability": "nonpayable",
      "type": "constructor"
    },
    {
      "anonymous": false,
      "inputs": [
        {
          "indexed": true,
          "internalType": "address",
          "name": "previousOwner",
          "type": "address"
        },
        {
          "indexed": true,
          "internalType": "address",
          "name": "newOwner",
          "type": "address"
        }
      ],
      "name": "OwnershipTransferred",
      "type": "event"
    },
    {
      "inputs": [
        {
          "internalType": "address[]",
          "name": "path",
          "type": "address[]"
        },
        {
          "internalType": "uint256",
          "name": "amountOut",
          "type": "uint256"
        }
      ],
      "name": "liquidate",
      "outputs": [],
      "stateMutability": "nonpayable",
      "type": "function"
    },
    {
      "inputs": [],
      "name": "owner",
      "outputs": [
        {
          "internalType": "address",
          "name": "",
          "type": "address"
        }
      ],
      "stateMutability": "view",
      "type": "function"
    },
    {
      "inputs": [],
      "name": "renounceOwnership",
      "outputs": [],
      "stateMutability": "nonpayable",
      "type": "function"
    },
    {
      "inputs": [
        {
          "internalType": "address",
          "name": "newOwner",
          "type": "address"
        }
      ],
      "name": "transferOwnership",
      "outputs": [],
      "stateMutability": "nonpayable",
      "type": "function"
    },
    {
      "inputs": [
        {
          "internalType": "address",
          "name": "sender",
          "type": "address"
        },
        {
          "internalType": "uint256",
          "name": "amount0",
          "type": "uint256"
        },
        {
          "internalType": "uint256",
          "name": "amount1",
          "type": "uint256"
        },
        {
          "internalType": "bytes",
          "name": "data",
          "type": "bytes"
        }
      ],
      "name": "uniswapV2Call",
      "outputs": [],
      "stateMutability": "nonpayable",
      "type": "function"
    },
    {
      "inputs": [],
      "name": "withdraw",
      "outputs": [],
      "stateMutability": "nonpayable",
      "type": "function"
    },
    {
      "inputs": [
        {
          "internalType": "address",
          "name": "token",
          "type": "address"
        },
        {
          "internalType": "uint256",
          "name": "amount",
          "type": "uint256"
        }
      ],
      "name": "withdrawTokens",
      "outputs": [],
      "stateMutability": "nonpayable",
      "type": "function"
    },
    {
      "stateMutability": "payable",
      "type": "receive"
    }
  ],
  "bytecode": {
    "object": "0x6101006040523480156200001257600080fd5b50604051620010c4380380620010c4833981016040819052620000359162000141565b6200004033620000d4565b6001600160a01b0380841660805282811660a081905290821660c052604080516315ab88c960e31b8152905163ad5c4648916004808201926020929091908290030181865afa15801562000098573d6000803e3d6000fd5b505050506040513d601f19601f82011682018060405250810190620000be91906200018b565b6001600160a01b031660e05250620001b0915050565b600080546001600160a01b038381166001600160a01b0319831681178455604051919092169283917f8be0079c531659141344cd1fd0a4f28419497f9722a3daafe3b4186f6b6457e09190a35050565b80516001600160a01b03811681146200013c57600080fd5b919050565b6000806000606084860312156200015757600080fd5b620001628462000124565b9250620001726020850162000124565b9150620001826040850162000124565b90509250925092565b6000602082840312156200019e57600080fd5b620001a98262000124565b9392505050565b60805160a05160c05160e051610ed3620001f16000396000610747015260006101b1015260006102a301526000818161065201526106d40152610ed36000f3fe6080604052600436106100745760003560e01c80633ccfd60b1161004e5780633ccfd60b146100e2578063715018a6146100f75780638da5cb5b1461010c578063f2fde38b1461013857600080fd5b806301acaf6e1461008057806306b091f9146100a257806310d1e85c146100c257600080fd5b3661007b57005b600080fd5b34801561008c57600080fd5b506100a061009b366004610aac565b610158565b005b3480156100ae57600080fd5b506100a06100bd366004610b3c565b6104a6565b3480156100ce57600080fd5b506100a06100dd366004610b68565b610561565b3480156100ee57600080fd5b506100a06108e3565b34801561010357600080fd5b506100a0610978565b34801561011857600080fd5b50600054604080516001600160a01b039092168252519081900360200190f35b34801561014457600080fd5b506100a0610153366004610bfe565b61098c565b600081116101ad5760405162461bcd60e51b815260206004820181905260248201527f416d6f756e744f7574206d7573742062652067726561746572207468616e203060448201526064015b60405180910390fd5b60007f00000000000000000000000000000000000000000000000000000000000000006001600160a01b031663e6a43905858560008181106101f1576101f1610c22565b90506020020160208101906102069190610bfe565b8686600181811061021957610219610c22565b905060200201602081019061022e9190610bfe565b6040516001600160e01b031960e085901b1681526001600160a01b03928316600482015291166024820152604401602060405180830381865afa158015610279573d6000803e3d6000fd5b505050506040513d601f19601f8201168201806040525081019061029d9190610c38565b905060007f00000000000000000000000000000000000000000000000000000000000000006001600160a01b0316631f00ca748487876040518463ffffffff1660e01b81526004016102f193929190610c55565b600060405180830381865afa15801561030e573d6000803e3d6000fd5b505050506040513d6000823e601f3d908101601f191682016040526103369190810190610cf4565b60008151811061034857610348610c22565b6020026020010151905061038f604051806080016040528060006001600160a01b0316815260200160006001600160a01b0316815260200160008152602001600081525090565b858560018181106103a2576103a2610c22565b90506020020160208101906103b79190610bfe565b6001600160a01b0316815285856000816103d3576103d3610c22565b90506020020160208101906103e89190610bfe565b6001600160a01b0390811660208381019182526040808501888152606080870188815283518851881695810195909552945186168484015290519083015291516080808301919091528251808303909101815260a082019283905263022c0d9f60e01b9092529185169163022c0d9f9161046c91600091899130919060a401610d9a565b600060405180830381600087803b15801561048657600080fd5b505af115801561049a573d6000803e3d6000fd5b50505050505050505050565b6104ae610a02565b60405163a9059cbb60e01b8152336004820152602481018290526001600160a01b0383169063a9059cbb906044016020604051808303816000875af11580156104fb573d6000803e3d6000fd5b505050506040513d601f19601f8201168201806040525081019061051f9190610e06565b61055d5760405162461bcd60e51b815260206004820152600f60248201526e15da5d1a191c985dc819985a5b1959608a1b60448201526064016101a4565b5050565b6001600160a01b03851630146105b95760405162461bcd60e51b815260206004820152601c60248201527f53656e646572206d757374206265207468697320636f6e74726163740000000060448201526064016101a4565b60008411806105c85750600083115b6106265760405162461bcd60e51b815260206004820152602960248201527f616d6f756e7430206f7220616d6f756e7431206d75737420626520677265617460448201526806572207468616e20360bc1b60648201526084016101a4565b600061063482840184610e28565b8051604080830151905163095ea7b360e01b81526001600160a01b037f0000000000000000000000000000000000000000000000000000000000000000811660048301526024820192909252929350169063095ea7b3906044016020604051808303816000875af11580156106ad573d6000803e3d6000fd5b505050506040513d601f19601f820116820180604052508101906106d19190610e06565b507f00000000000000000000000000000000000000000000000000000000000000006001600160a01b0316639220ee6b6040518163ffffffff1660e01b8152600401600060405180830381600087803b15801561072d57600080fd5b505af1158015610741573d6000803e3d6000fd5b505050507f00000000000000000000000000000000000000000000000000000000000000006001600160a01b031663d0e30db082606001516040518263ffffffff1660e01b81526004016000604051808303818588803b1580156107a457600080fd5b505af11580156107b8573d6000803e3d6000fd5b5050506020830151606084015160405163a9059cbb60e01b815233600482015260248101919091526001600160a01b03909116925063a9059cbb91506044016020604051808303816000875af1158015610816573d6000803e3d6000fd5b505050506040513d601f19601f8201168201806040525081019061083a9190610e06565b6108755760405162461bcd60e51b815260206004820152600c60248201526b1c995c185e4819985a5b195960a21b60448201526064016101a4565b662386f26fc100004710156108db5760405162461bcd60e51b815260206004820152602660248201527f50726f666974206d7573742062652067726561746572207468616e20302e30316044820152651032ba3432b960d11b60648201526084016101a4565b505050505050565b6108eb610a02565b604051600090339047908381818185875af1925050503d806000811461092d576040519150601f19603f3d011682016040523d82523d6000602084013e610932565b606091505b50509050806109755760405162461bcd60e51b815260206004820152600f60248201526e15da5d1a191c985dc819985a5b1959608a1b60448201526064016101a4565b50565b610980610a02565b61098a6000610a5c565b565b610994610a02565b6001600160a01b0381166109f95760405162461bcd60e51b815260206004820152602660248201527f4f776e61626c653a206e6577206f776e657220697320746865207a65726f206160448201526564647265737360d01b60648201526084016101a4565b61097581610a5c565b6000546001600160a01b0316331461098a5760405162461bcd60e51b815260206004820181905260248201527f4f776e61626c653a2063616c6c6572206973206e6f7420746865206f776e657260448201526064016101a4565b600080546001600160a01b038381166001600160a01b0319831681178455604051919092169283917f8be0079c531659141344cd1fd0a4f28419497f9722a3daafe3b4186f6b6457e09190a35050565b600080600060408486031215610ac157600080fd5b833567ffffffffffffffff80821115610ad957600080fd5b818601915086601f830112610aed57600080fd5b813581811115610afc57600080fd5b8760208260051b8501011115610b1157600080fd5b6020928301989097509590910135949350505050565b6001600160a01b038116811461097557600080fd5b60008060408385031215610b4f57600080fd5b8235610b5a81610b27565b946020939093013593505050565b600080600080600060808688031215610b8057600080fd5b8535610b8b81610b27565b94506020860135935060408601359250606086013567ffffffffffffffff80821115610bb657600080fd5b818801915088601f830112610bca57600080fd5b813581811115610bd957600080fd5b896020828501011115610beb57600080fd5b9699959850939650602001949392505050565b600060208284031215610c1057600080fd5b8135610c1b81610b27565b9392505050565b634e487b7160e01b600052603260045260246000fd5b600060208284031215610c4a57600080fd5b8151610c1b81610b27565b83815260406020808301829052908201839052600090849060608401835b86811015610ca1578335610c8681610b27565b6001600160a01b031682529282019290820190600101610c73565b50979650505050505050565b634e487b7160e01b600052604160045260246000fd5b604051601f8201601f1916810167ffffffffffffffff81118282101715610cec57610cec610cad565b604052919050565b60006020808385031215610d0757600080fd5b825167ffffffffffffffff80821115610d1f57600080fd5b818501915085601f830112610d3357600080fd5b815181811115610d4557610d45610cad565b8060051b9150610d56848301610cc3565b8181529183018401918481019088841115610d7057600080fd5b938501935b83851015610d8e57845182529385019390850190610d75565b98975050505050505050565b84815260006020858184015260018060a01b038516604084015260806060840152835180608085015260005b81811015610de25785810183015185820160a001528201610dc6565b50600060a0828601015260a0601f19601f8301168501019250505095945050505050565b600060208284031215610e1857600080fd5b81518015158114610c1b57600080fd5b600060808284031215610e3a57600080fd5b6040516080810181811067ffffffffffffffff82111715610e5d57610e5d610cad565b6040528235610e6b81610b27565b81526020830135610e7b81610b27565b602082015260408381013590820152606092830135928101929092525091905056fea264697066735822122093746d92ecfd845dfc77f4ef8a1e560fae1d34c59d2b552fd5a2eff9bccbab2064736f6c63430008110033",
    "linkReferences": {}
  },
  "methodIdentifiers": {
    "liquidate(address[],uint256)": "01acaf6e",
    "owner()": "8da5cb5b",
    "renounceOwnership()": "715018a6",
    "transferOwnership(address)": "f2fde38b",
    "uniswapV2Call(address,uint256,uint256,bytes)": "10d1e85c",
    "withdraw()": "3ccfd60b",
    "withdrawTokens(address,uint256)": "06b091f9"
  },
  "id": 2
}