{
  "abi": [
    {
      "anonymous": false,
      "inputs": [
        {
          "indexed": true,
          "internalType": "address",
          "name": "previousOwner",
          "type": "address"
        },
        {
          "indexed": true,
          "internalType": "address",
          "name": "newOwner",
          "type": "address"
        }
      ],
      "name": "OwnershipTransferred",
      "type": "event"
    },
    {
      "inputs": [
        {
          "internalType": "address",
          "name": "priceLowerPool",
          "type": "address"
        },
        {
          "internalType": "address",
          "name": "priceHigherPool",
          "type": "address"
        },
        {
          "internalType": "uint256",
          "name": "borrowETH",
          "type": "uint256"
        }
      ],
      "name": "arbitrage",
      "outputs": [],
      "stateMutability": "nonpayable",
      "type": "function"
    },
    {
      "inputs": [],
      "name": "owner",
      "outputs": [
        {
          "internalType": "address",
          "name": "",
          "type": "address"
        }
      ],
      "stateMutability": "view",
      "type": "function"
    },
    {
      "inputs": [],
      "name": "renounceOwnership",
      "outputs": [],
      "stateMutability": "nonpayable",
      "type": "function"
    },
    {
      "inputs": [
        {
          "internalType": "address",
          "name": "newOwner",
          "type": "address"
        }
      ],
      "name": "transferOwnership",
      "outputs": [],
      "stateMutability": "nonpayable",
      "type": "function"
    },
    {
      "inputs": [
        {
          "internalType": "address",
          "name": "sender",
          "type": "address"
        },
        {
          "internalType": "uint256",
          "name": "amount0",
          "type": "uint256"
        },
        {
          "internalType": "uint256",
          "name": "amount1",
          "type": "uint256"
        },
        {
          "internalType": "bytes",
          "name": "data",
          "type": "bytes"
        }
      ],
      "name": "uniswapV2Call",
      "outputs": [],
      "stateMutability": "nonpayable",
      "type": "function"
    },
    {
      "inputs": [],
      "name": "withdraw",
      "outputs": [],
      "stateMutability": "nonpayable",
      "type": "function"
    },
    {
      "inputs": [
        {
          "internalType": "address",
          "name": "token",
          "type": "address"
        },
        {
          "internalType": "uint256",
          "name": "amount",
          "type": "uint256"
        }
      ],
      "name": "withdrawTokens",
      "outputs": [],
      "stateMutability": "nonpayable",
      "type": "function"
    }
  ],
  "bytecode": {
    "object": "0x608060405234801561001057600080fd5b5061001a3361001f565b61006f565b600080546001600160a01b038381166001600160a01b0319831681178455604051919092169283917f8be0079c531659141344cd1fd0a4f28419497f9722a3daafe3b4186f6b6457e09190a35050565b610fa68061007e6000396000f3fe608060405234801561001057600080fd5b506004361061007d5760003560e01c8063715018a61161005b578063715018a6146100b25780638da5cb5b146100ba578063b09de2f9146100d9578063f2fde38b146100ec57600080fd5b806306b091f91461008257806310d1e85c146100975780633ccfd60b146100aa575b600080fd5b610095610090366004610bab565b6100ff565b005b6100956100a5366004610bd7565b6101bf565b6100956104d4565b610095610569565b600054604080516001600160a01b039092168252519081900360200190f35b6100956100e7366004610c6d565b61057d565b6100956100fa366004610cae565b6108a2565b610107610918565b60405163a9059cbb60e01b8152336004820152602481018290526001600160a01b0383169063a9059cbb906044016020604051808303816000875af1158015610154573d6000803e3d6000fd5b505050506040513d601f19601f820116820180604052508101906101789190610cd2565b6101bb5760405162461bcd60e51b815260206004820152600f60248201526e15da5d1a191c985dc819985a5b1959608a1b60448201526064015b60405180910390fd5b5050565b6001600160a01b03851630146102175760405162461bcd60e51b815260206004820152601c60248201527f53656e646572206d757374206265207468697320636f6e74726163740000000060448201526064016101b2565b60008411806102265750600083115b6102845760405162461bcd60e51b815260206004820152602960248201527f616d6f756e7430206f7220616d6f756e7431206d75737420626520677265617460448201526806572207468616e20360bc1b60648201526084016101b2565b600061029282840184610d0a565b905080604001516001600160a01b031663a9059cbb82602001518360a001516040518363ffffffff1660e01b81526004016102e29291906001600160a01b03929092168252602082015260400190565b6020604051808303816000875af1158015610301573d6000803e3d6000fd5b505050506040513d601f19601f820116820180604052508101906103259190610cd2565b61035f5760405162461bcd60e51b815260206004820152600b60248201526a706179206661696c65642160a81b60448201526064016101b2565b80602001516001600160a01b031663022c0d9f60008360c0015130600067ffffffffffffffff81111561039457610394610cf4565b6040519080825280601f01601f1916602001820160405280156103be576020820181803683370190505b506040518563ffffffff1660e01b81526004016103de9493929190610dfc565b600060405180830381600087803b1580156103f857600080fd5b505af115801561040c573d6000803e3d6000fd5b5050505060608101518151608083015160405163a9059cbb60e01b81526001600160a01b039283166004820152602481019190915291169063a9059cbb906044016020604051808303816000875af115801561046c573d6000803e3d6000fd5b505050506040513d601f19601f820116820180604052508101906104909190610cd2565b6104cc5760405162461bcd60e51b815260206004820152600d60248201526c7265706179206661696c65642160981b60448201526064016101b2565b505050505050565b6104dc610918565b604051600090339047908381818185875af1925050503d806000811461051e576040519150601f19603f3d011682016040523d82523d6000602084013e610523565b606091505b50509050806105665760405162461bcd60e51b815260206004820152600f60248201526e15da5d1a191c985dc819985a5b1959608a1b60448201526064016101b2565b50565b610571610918565b61057b6000610972565b565b600080846001600160a01b0316630902f1ac6040518163ffffffff1660e01b8152600401606060405180830381865afa1580156105be573d6000803e3d6000fd5b505050506040513d601f19601f820116820180604052508101906105e29190610e40565b5091509150600061060684836001600160701b0316856001600160701b03166109c2565b9050600080866001600160a01b0316630902f1ac6040518163ffffffff1660e01b8152600401606060405180830381865afa158015610649573d6000803e3d6000fd5b505050506040513d601f19601f8201168201806040525081019061066d9190610e40565b5091509150600061069187846001600160701b0316846001600160701b0316610aa7565b6040805160e08101825260008183018190526060820181905260a0820181905260c08201526001600160a01b038c8116808352908c16602080840191909152608083018990528351630dfe168160e01b8152935194955091939092630dfe16819260048083019391928290030181865afa158015610713573d6000803e3d6000fd5b505050506040513d601f19601f820116820180604052508101906107379190610e90565b81604001906001600160a01b031690816001600160a01b031681525050896001600160a01b031663d21220a76040518163ffffffff1660e01b8152600401602060405180830381865afa158015610792573d6000803e3d6000fd5b505050506040513d601f19601f820116820180604052508101906107b69190610e90565b6001600160a01b03908116606083810191825260a08085018c815260c080870188815260408051895189166020808301919091528a0151891681830152818a015189169681019690965295518716608080870191909152880151938501939093529051908301525160e0808301919091528251808303909101815261010082019283905263022c0d9f60e01b909252918c169163022c0d9f91610864918c9160009130919061010401610dfc565b600060405180830381600087803b15801561087e57600080fd5b505af1158015610892573d6000803e3d6000fd5b5050505050505050505050505050565b6108aa610918565b6001600160a01b03811661090f5760405162461bcd60e51b815260206004820152602660248201527f4f776e61626c653a206e6577206f776e657220697320746865207a65726f206160448201526564647265737360d01b60648201526084016101b2565b61056681610972565b6000546001600160a01b0316331461057b5760405162461bcd60e51b815260206004820181905260248201527f4f776e61626c653a2063616c6c6572206973206e6f7420746865206f776e657260448201526064016101b2565b600080546001600160a01b038381166001600160a01b0319831681178455604051919092169283917f8be0079c531659141344cd1fd0a4f28419497f9722a3daafe3b4186f6b6457e09190a35050565b6000808411610a285760405162461bcd60e51b815260206004820152602c60248201527f556e697377617056324c6962726172793a20494e53554646494349454e545f4f60448201526b155514155517d05353d5539560a21b60648201526084016101b2565b600083118015610a385750600082115b610a545760405162461bcd60e51b81526004016101b290610ead565b6000610a608585610f0b565b610a6c906103e8610f0b565b90506000610a7a8685610f28565b610a86906103e5610f0b565b9050610a928183610f3b565b610a9d906001610f5d565b9695505050505050565b6000808411610b0c5760405162461bcd60e51b815260206004820152602b60248201527f556e697377617056324c6962726172793a20494e53554646494349454e545f4960448201526a1394155517d05353d5539560aa1b60648201526084016101b2565b600083118015610b1c5750600082115b610b385760405162461bcd60e51b81526004016101b290610ead565b6000610b46856103e5610f0b565b90506000610b548483610f0b565b9050600082610b65876103e8610f0b565b610b6f9190610f5d565b9050610b7b8183610f3b565b979650505050505050565b6001600160a01b038116811461056657600080fd5b8035610ba681610b86565b919050565b60008060408385031215610bbe57600080fd5b8235610bc981610b86565b946020939093013593505050565b600080600080600060808688031215610bef57600080fd5b8535610bfa81610b86565b94506020860135935060408601359250606086013567ffffffffffffffff80821115610c2557600080fd5b818801915088601f830112610c3957600080fd5b813581811115610c4857600080fd5b896020828501011115610c5a57600080fd5b9699959850939650602001949392505050565b600080600060608486031215610c8257600080fd5b8335610c8d81610b86565b92506020840135610c9d81610b86565b929592945050506040919091013590565b600060208284031215610cc057600080fd5b8135610ccb81610b86565b9392505050565b600060208284031215610ce457600080fd5b81518015158114610ccb57600080fd5b634e487b7160e01b600052604160045260246000fd5b600060e08284031215610d1c57600080fd5b60405160e0810181811067ffffffffffffffff82111715610d4d57634e487b7160e01b600052604160045260246000fd5b604052610d5983610b9b565b8152610d6760208401610b9b565b6020820152610d7860408401610b9b565b6040820152610d8960608401610b9b565b60608201526080830135608082015260a083013560a082015260c083013560c08201528091505092915050565b6000815180845260005b81811015610ddc57602081850181015186830182015201610dc0565b506000602082860101526020601f19601f83011685010191505092915050565b84815283602082015260018060a01b0383166040820152608060608201526000610a9d6080830184610db6565b80516001600160701b0381168114610ba657600080fd5b600080600060608486031215610e5557600080fd5b610e5e84610e29565b9250610e6c60208501610e29565b9150604084015163ffffffff81168114610e8557600080fd5b809150509250925092565b600060208284031215610ea257600080fd5b8151610ccb81610b86565b60208082526028908201527f556e697377617056324c6962726172793a20494e53554646494349454e545f4c604082015267495155494449545960c01b606082015260800190565b634e487b7160e01b600052601160045260246000fd5b8082028115828204841417610f2257610f22610ef5565b92915050565b81810381811115610f2257610f22610ef5565b600082610f5857634e487b7160e01b600052601260045260246000fd5b500490565b80820180821115610f2257610f22610ef556fea2646970667358221220b434f7550d15ed0ca2b97df7002ce5630a28962e1bfc321ed9ae2190321e6ea664736f6c63430008110033",
    "linkReferences": {}
  },
  "methodIdentifiers": {
    "arbitrage(address,address,uint256)": "b09de2f9",
    "owner()": "8da5cb5b",
    "renounceOwnership()": "715018a6",
    "transferOwnership(address)": "f2fde38b",
    "uniswapV2Call(address,uint256,uint256,bytes)": "10d1e85c",
    "withdraw()": "3ccfd60b",
    "withdrawTokens(address,uint256)": "06b091f9"
  },
  "id": 0
}